:020000040800F2
:10000000305F0020B5020008A11F0008651E00082F
:100010009D1F000839120008C51F000800000000DD
:10002000000000000000000000000000A91F000800
:100030003D12000800000000A51F0008AD1F0008C9
:10004000CF020008CF020008CF020008CF0200084C
:10005000CF020008CF020008CF020008CF0200083C
:10006000CF020008CF020008CF020008CF0200082C
:10007000CF020008CF020008CF020008CF0200081C
:10008000CF020008CF020008CF020008CF0200080C
:10009000CF020008CF020008CF020008CF020008FC
:1000A000CF020008CF020008CF020008CF020008EC
:1000B000CF020008CF020008CF020008CF020008DC
:1000C000CF020008CF020008CF020008CF020008CC
:1000D000CF020008CF020008CF020008CF020008BC
:1000E000CF020008CF020008CF020008CF020008AC
:1000F000CF020008CF020008CF020008CF0200089C
:10010000CF020008CF020008CF020008CF0200088B
:10011000CF020008CF020008CF020008CF0200087B
:10012000CF020008CF020008CF020008CF0200086B
:10013000CF020008CF020008CF020008CF0200085B
:10014000CF020008CF020008CF020008CF0200084B
:10015000CF020008CF020008CF020008CF0200083B
:10016000CF020008CF020008CF020008CF0200082B
:10017000CF020008CF020008CF02000800000000F4
:10018000CF020008CF02000800F002F800F082F869
:1001900014A696E8000CB244B344DA4501D100F04D
:1001A00079F8BAE80F000FA696E83000A5EB040531
:1001B00004EB0607AAEB0704A7F101074FEA1515A0
:1001C0004FEA3414A4F10104AC4201D300F062F808
:1001D00013F0010F18BFFB1A43F0010300F001F800
:1001E000DBE71847C06B0100E06B01000A444FF0E9
:1001F000000C10F8013B13F0070408BF10F8014B86
:100200001D1108BF10F8015B641E05D010F8016BCA
:10021000641E01F8016BF9D113F0080F1EBF10F82E
:10022000014BAD1C0C1B09D16D1E58BF01F801CB51
:10023000FAD505E014F8016B01F8016B6D1EF9D5D4
:100240009142D6D37047000070470000002300247D
:1002500000250026103A28BF78C1FBD8520728BFD6
:1002600030C148BF0B607047782900F0F5807329D2
:1002700000F01883002070471FB515F0D7F89DE8EF
:10028000030000F06FFA00F055FC1FBD10B500F040
:10029000BAFC10BD00F025FD1146FFF7EDFF01F09F
:1002A000FBFF00F08DFE03B4FFF7F0FF03BC00F08E
:1002B000C5FE00000948804709480047FEE7FEE701
:1002C000FEE7FEE7FEE7FEE7FEE7FEE7FEE7FEE706
:1002D00004480549054A064B70470000B11F000855
:1002E00089010008304F0020305F00203057002087
:1002F0003057002070B5064600F018FA056806F180
:100300000B0020F00704B4429CBF002070BD2B46B8
:100310006A68BAB11068A04210D304F1080188429B
:100320003CBF5068586007D351681019416011688C
:10033000091B016058601460101D70BD134652689F
:10034000002AE7D12146284600F0F8F90028DED13E
:1003500070BD70B50446051F00F0E8F90068002C78
:1003600014BF446870BD002C18BFAC423CBF20468F
:100370006468F8D301680A18AA4218BF456003D11F
:100380002A6805461144016028684119A1421CBF32
:100390006C6070BD6168696021680844286070BD48
:1003A0000FB4044910B503AA029800F07FFA10BCFC
:1003B0005DF814FB940B002070B504468569006855
:1003C000C10601D5302600E02026C00707D070BD49
:1003D000D4E9012130469047206A401C20626D1EFE
:1003E000F6D570BD70B5044685690078C00707D1A1
:1003F00070BDD4E9012120209047206A401C206272
:100400006D1EF6D570BD70B50C460546012A05D0A7
:100410002878800600D5EA69002302E0012305E080
:100420005B1C934202D2E05C0028F9D1A869E6186F
:10043000C01AA861286A184428622846FFF7BCFF42
:1004400004E0D5E9012114F8010B9047B442F8D338
:100450002846FFF7C7FF70BD70B504460D4621461C
:100460001068AFF300802188090502D50F4A7A444D
:1004700002E00E4A7A440E32002104F1240305E022
:1004800000F00F060009965D5E54491C0028F7D164
:1004900020780023000704D5702D02D009B1022373
:1004A00011322046BDE8704000F091B9B65101000C
:1004B0002DE9F05F894604464FF0000ADFF824B1C9
:1004C000FB44C0F820A02046E168884700287DD082
:1004D000252806D0D4E901219047206A401C2062DB
:1004E000F1E700255F462046E16888472028064658
:1004F00007DB312E05D2B81910F8200C08B10543DE
:10050000F1E7A80701D525F00405C4F81CA00027D1
:10051000C4F818A02A2E09D0304611F00AF938B3D1
:1005200004EB8708303EC8F8186019E059F8041B3E
:10053000204604EB87029161E1688847012F064657
:1005400018D1E069002820DA25F020051DE0D8F850
:10055000180000EB800006EB40003038C8F81800A7
:100560002046E1688847064611F0E3F80028EED1FE
:10057000012F0AD02E2E08D12046E16888477F1C23
:100580000646022F45F02005C4DBA069002803DAE7
:10059000404245F00105A061E80701D025F01005B3
:1005A000A6B1A6F14100192802D8203645F400650D
:1005B0004A463146204625604D46FFF755FE60B15C
:1005C000012807D0ED1D25F0070000E007E000F14D
:1005D000080978E705F1040975E730467AE7206AEB
:1005E00000F002B88C51010030BCBDE8C09F000093
:1005F00010B5044603E013F064FE401C09D014F863
:10060000010B05490028F6D1BDE810400A2013F07F
:1006100058BE4FF0FF3010BD940B002040EA01039C
:1006200010B59B070FD1042A0DD310C808C9121F9B
:100630009C42F8D020BA19BA884201D9012010BDD5
:100640004FF0FF3010BD1AB1D30703D0521C07E0A2
:10065000002010BD10F8013B11F8014B1B1B07D106
:1006600010F8013B11F8014B1B1B01D1921EF1D177
:10067000184610BD10B5203AC0F00B80B1E81850F4
:10068000A0E81850B1E81850A0E81850203ABFF47C
:10069000F5AF5FEA027C24BFB1E81850A0E818501B
:1006A00044BF18C918C0BDE810405FEA827C24BF6F
:1006B00051F8043B40F8043B08BF7047D20728BFFD
:1006C00031F8023B48BF11F8012B28BF20F8023B4C
:1006D00048BF00F8012B70474FF0000200B51346E9
:1006E00094469646203922BFA0E80C50A0E80C5052
:1006F000B1F12001BFF4F7AF090728BFA0E80C5003
:1007000048BF0CC05DF804EB890028BF40F8042BFB
:1007100008BF704748BF20F8022B11F0804F18BF68
:1007200000F8012B704770477047704700487047CA
:10073000440C0020704770477047704738B5044636
:100740000A4600206946AFF30080002808BF38BD84
:1007500002460099204600F0C3F8012038BD012070
:1007600000F084BAF8B5AFF30080054600200C46CF
:100770000C2000BF0646A819A0420DD93246694692
:100780000020AFF30080070008BF00F06FFA009868
:10079000A04218BF0546C419FFF7C8FF0560074609
:1007A000F01D20F007004619284600F00AF8B44270
:1007B00008BFF8BDA21B31463868BDE8F84000F01C
:1007C0008FB800210160416070470C2070472DE90F
:1007D000F0470D4699469246044600F12408016808
:1007E000880604D5E06921F01001216000E00120B5
:1007F000A84201DD471B00E00027A1697A1902EB3E
:100800000900081AA0612078C00602D42046FFF72C
:10081000D3FD002608E0D4E901211AF8060090472C
:10082000206A401C761C20624E45F4DB2078C0060E
:100830000AD52046FFF7C0FD06E0D4E901213020AB
:100840009047206A401C2062381EA7F10107F4DCA3
:1008500007E0D4E9012118F805009047206A401C00
:100860002062281EA5F10105F3DC2046FFF7BAFD42
:100870002078000602D50220BDE8F0870120FBE7C2
:1008800010B5436913B1AFF3008001E0FFF7BBFD82
:10089000012010BD127800F124010A7000224A7074
:1008A0000122EDE711684FF0FF32E9E7074B70B521
:1008B0000D467B4400F033F80446284600F042F829
:1008C00010B14FF0FF3070BD204670BD0D3A0100F1
:1008D000004870473C0C0020004870473C0C00204A
:1008E000034640688C46002818BF88423CBF034638
:1008F0004068F8D318681844884207D00CF1030008
:1009000020F00700001D411A521A0146081D0A6016
:10091000FFF71FBD01694A1C02610878704700B5E6
:100920008FB0CDE901310021059105497944CDE928
:10093000031011466846FFF7BBFD0FB000BD000075
:10094000E5FFFFFF007B00F0800070472DE9F05FBE
:10095000054617460C46C86820F4201040F4800075
:10096000C860800602D5084600F067FAE06841F2E8
:1009700082014FF0FF3A0140022903D0204600F0E7
:10098000F9F9B9E000F42041B1F5004F0FD1C003EF
:1009900006D56168E06A884200D80846606006E0D3
:1009A0002069E0626060606900F094F9A061A0686D
:1009B0000022EEB200280DDAE1688B050AD4C043AC
:1009C000A06041F490302260E0606068411C61608A
:1009D0000670AAE0E0689146226040F40050E060B2
:1009E000206978BB606900F067F904F124054FF0D5
:1009F0000108A8B1A08910F4407F08D0E069FFF792
:100A000079FC206118B1E06840F4006017E0C4F898
:100A10001C802561E06820F4407040F480600EE0A6
:100A2000E069FFF767FC00282061F0D0E06840F43F
:100A3000006010F4407FE06002D140F48070E0601C
:100A400020696060E06825696FF0010BC1051ED563
:100A50006168E06A884200D80846411B04D02246FB
:100A6000284600F091F9E8BB1FB1E562C4E90159DD
:100A700059E0681CE0626060E069401EA060E068C8
:100A800040F48030E06030462E7000F050B817B16E
:100A900000F480320AE06068411C61600670E06822
:100AA0000A2E40F48030E06006D00022E16A6068DF
:100AB000814203D90B4602E00122F7E70346B4F86E
:100AC0000CC05B1B5FEA4C5C04D4D4F81CC09C4592
:100AD00000DD02B3814200D80146002BA1EB0008E3
:100AE000E56200E008E0C4E9015907DD2246194645
:100AF000284600F049F908B15046C6E7B8F1000FA2
:100B000009D0A169E5626560A1EB0800A061E06819
:100B100040F01000E06047B16168A069E562491BE0
:100B200008446560A0615846AFE73046ADE730BC89
:100B3000BDE8C09F10B542485421FFF7CDFD4148A4
:100B40005421FFF7C9FD40485421FFF7C5FD3F4937
:100B50003B483C4A3F4B08603D490A603A491960AE
:100B6000531C0365481C1065012008653B48344A46
:100B700039A1784400F086F920B9384878440A3819
:100B800000F02CFA37482F4A35A1784400F07AF962
:100B900020B9344878440A3800F020FA32482A4A0A
:100BA0002FA1784400F06EF920B92F4878440A3814
:100BB00000F014FA40232248DC000021224600F015
:100BC000B5F820B125487844543800F007FA1D489C
:100BD00022464023002100F0A9F820B121487844A2
:100BE000543800F0FBF9184822461023002100F089
:100BF0009DF8002806D01C487844BDE810405638BF
:100C000000F0ECB910BD104870B5006D20F0010483
:100C10000B4800F0AFF90B4800F0ACF90A4800F0BF
:100C2000A9F909E0206D20F00105204600F0A2F9A5
:100C30002046FFF78EFB2C46002CF3D170BD000040
:100C4000400B0020940B0020E80B00200000002047
:100C5000040000200800002072000000EB4A0100A0
:100C600077000000D74A0100C34A010010B500F028
:100C7000BDF9BDE8104000F0ACB90EB5CDE90001FA
:100C800000F092FA029069460120ABBE0EBD08B595
:100C9000694600900220ABBE08BD1FB58DE8070075
:100CA00069460520ABBE04B010BD1FB58DE80F002E
:100CB00069460620ABBEF6E708B5694600900920F4
:100CC000ABBE08BD1CB5CDE9000169460A20ABBE2C
:100CD0001CBD704708B5694600900C20ABBE08BD2E
:100CE00070477546FFF7F4FDAE460500694653466A
:100CF00020F00700854618B020B5FFF7E9FABDE8F7
:100D000020404FF000064FF000074FF000084FF072
:100D1000000BAC46ACE8C009ACE8C009ACE8C009BF
:100D2000ACE8C00921F007018D46704770B5C46872
:100D3000A50713D0650211D4B2F5807F09D0B2F5B2
:100D4000007F06D0B2F5806F08D1012300F12401A5
:100D500006E05D1E6FF07F46B54201D3012070BDF5
:100D60000161C361416024F470611143C1600020DE
:100D700070BD0000C16821F4001141F08001C16024
:100D800000218160016070472DE9F74F15460C4640
:100D90004FF0FF3B3848D768D2F814A0074209D07B
:100DA0005046A969FFF78EFF002819DB3248C0437F
:100DB0000740EF604FF000496FF000484C4501D309
:100DC000464600E0264600993B4650463246FFF72D
:100DD00064FFA96920F00042B21A1144A96128B148
:100DE0002846FFF7C7FF584600F048B8A41BE5D1D6
:100DF0000020F9E770B504460569C06A6168884259
:100E000000D80846E16821F42011E160C90312D539
:100E1000A84208D02246411B2846FFF7B5FF10B173
:100E20004FF0FF3070BD0020E562C4E90150E0687A
:100E300020F48030E060002070BD10B50446C0682A
:100E400020F02000E060A16AA06988420DD0204611
:100E5000FFF7D0FFE06820F4405040F01000E06061
:100E6000A06AA0612069E062606044F24001E0682D
:100E70008843E06010BD0000100002001EBCBDE809
:100E8000E08F00002DE9F0410C461646070047D0E0
:100E9000104600F06FF82078611C61280AD0722893
:100EA00002D077283CD102E00125002405E002258C
:100EB000042402E0082448F2020511F8010B2B2853
:100EC00006D0622809D011F8010C74280AD00BE072
:100ED00045F0030544F00204EFE745F0040544F053
:100EE0000104EAE744F0100438462146FFF7C5FE46
:100EF000411C15D00021316171604FF40071F56023
:100F0000F1617061200704D530460222002100F013
:100F10009BF8306D40F0010030653046BDE8F0814F
:100F20000020FBE72DE9F0410D460646104C206DF0
:100F3000C10704D0410804D020F00104F7E722469D
:100F40000EE05420FFF7D6F907000ED0206D47F0D1
:100F500001010843542120653846FFF7BDFB3A469E
:100F600029463046BDE8F0418CE70020D6E7000076
:100F7000400B00202DE9F04704464FF0FF380026D3
:100F8000C568D4E90497A80718D02046FFF732FFB8
:100F90003846FFF77CFE002800DA4646280502D5D1
:100FA0004846FFF7D6F94C212046FFF795FB206D08
:100FB00020F0010020653046BDE8F0874046FBE7A1
:100FC00010B50446AFF300802046BDE81040FFF79F
:100FD0006AB9002801D000F031B8704710B500F0B0
:100FE000C9F8BDE81040FFF7F4BF000010B50128B4
:100FF00005D0002103A000F0A3F8012010BD09A135
:10100000F8E7000053494752544D454D3A204F757B
:1010100074206F662068656170206D656D6F7279F0
:10102000000000003A2048656170206D656D6F72A8
:101030007920636F727275707465640001491820BD
:10104000ABBEFEE7260002002DE9F041044616463D
:101050000D464769007B80072ED03846FFF72CFEEF
:1010600050BB3EB3012E02D0022E25D104E0204613
:1010700000F0C0F805441DE03846FFF72BFEE1689C
:10108000002841F01001E16005DA2046FFF772FE0A
:101090000120BDE8F081C9030BD56268E16A914285
:1010A00000D81146A26911442269891A814200DDE3
:1010B00008460544002D01DA0220EAE7E16A60688B
:1010C000E268814206D29103E06203D522F4003146
:1010D00041F01002A6690027AE4213DCE16A8142AA
:1010E00001D90B4600E0034603EB060C2369ACEB89
:1010F000030CAC4506DD814201D98C4600E08446F4
:101100009C4505D1A760276042F02000A5620DE054
:10111000AD1BE669AE1B8142A66000D90846C01A25
:10112000281A20605819606022F020000349084006
:10113000E060002084F84870ABE70000BFCFD7FF25
:1011400070B505460C460A2000E06D1C00F04BF817
:1011500035B128780028F8D102E0641C00F043F88B
:1011600014B120780028F8D1BDE870400A2000F0C2
:101170003AB8000010B5014602A0FFF7E1FF0120D8
:1011800010BD000053494752545245443A2052651D
:101190006469726563743A2063616E2774206F70AE
:1011A000656E3A200000000010B5431C02E010F804
:1011B000011B71B18107FAD14FF0013202C88C1ABC
:1011C0008C4314EAC211F9D0C01A0A0603D0C01E1B
:1011D00010BDC01A10BD0A0401D0801E10BD090246
:1011E000FCD0401E10BD08B569468DF800000320F4
:1011F000ABBE08BD10B50146C268900703D090068B
:1012000007D5886A0AE0FFF767FB01210160881EA5
:1012100010BD8B69486818440B69C01A91F84830B2
:101220001BB191F84910401A10BD1103FCD50028DC
:10123000FADD401E10BD0000FEE700007047000010
:1012400044F62870C2F200000068704740F27C004B
:1012500044F62871C2F20000C2F2000100780A6868
:10126000104408607047000080B542F20000C4F2EC
:101270000200016841F480710160032000F078F8F9
:101280000F2000F009F800281CBF012080BD00F0ED
:1012900029F8002080BD000070B540F27C06C2F243
:1012A00000063178E1B1044640F29C60C2F20000D1
:1012B0004FF47A720068B2FBF1F1B0FBF1F000F08C
:1012C000BBFD0F2C4FF0010508D838B94FF0FF30A7
:1012D00021460022002500F01FF87460284670BDEA
:1012E000012070BD82B041F25800C4F20200816852
:1012F00041F001018160816801F0010101910199D2
:10130000016841F080510160006800F08050009059
:10131000009802B07047000010B54EF60C5CCEF29B
:10132000000CDCF80030C3F3022E8EF00704042C0E
:1013300028BF0424BEF103034FF0FF3E0EFA04F46D
:1013400038BF0023A14399400EFA03F39A43114397
:1013500000F00F0200F160430901043A03F5644311
:101360006244002848BF02F10C03197010BD000050
:101370004EF60C51CEF200010A684FF6FF031A40F8
:1013800060F30A2242F0806040F0FD700860704710
:1013900047F20001C4F200010A68B0F5007F02F4D0
:1013A000C06031D1B0F5007F2CD00868012262F313
:1013B0004A20086040F29C60C2F2000000683222BD
:1013C00050434DF68362C4F21B32A0FB0202900C24
:1013D0004A69520511D5421C0FD04A6952050CD5F5
:1013E00058B14A69520508D5012806D04A69520504
:1013F00003D50228A0F10400EAD14869400544BFA2
:101400000320704700207047B0F5806FFAD008685D
:10141000022262F34A2008600020704747F2000071
:10142000C4F20000006800F4C06070472DE9F0438A
:1014300081B000286BD042F20008C4F202080446D2
:10144000D8F800000D4600F0070088420CD2D8F80A
:10145000000020F007002843C8F80000D8F800007A
:1014600000F00700A84252D1206841F2080910F0AC
:101470000201C4F202090DD0A268D9F8003003F0CD
:10148000F0039A4206D9D9F8003023F0F0031A434A
:10149000C9F80020C2072DD169B1A168D9F8002090
:1014A00002F0F002914206D2D9F8002022F0F002B8
:1014B0001143C9F80010D8F8001001F00701A94243
:1014C0000CD9D8F8001021F007012943C8F8001002
:1014D000D8F8001001F00701A94218D141071BD428
:1014E000000723D4D9F80000D9F8041010F00C003C
:1014F0002CD131E0606800285ED0022800F07E80A8
:10150000032840F0818059F8081C890158D4012033
:1015100001B0BDE8F08300BFD9F80010E26821F403
:10152000E0611143C9F800100007DBD5D9F80000CD
:10153000216920F4605040EAC100C9F80000D9F8E0
:101540000000D9F8041010F00C0005D00C2829D1A7
:1015500001F00301012925D159F8081C090703D41A
:10156000D9F88C10090A02E059F8081C090945F657
:10157000440201F00F01C0F6010252F821100028C8
:101580000A4618BF00220C2871D1D9F8040000F0D7
:101590000300022846D0032804BF41F20021C0F214
:1015A0007A0143E0042857D008285BD141F2002299
:1015B000C0F27A025BE000BF59F8081C8907A6D583
:1015C000D9F8001021F003010843C9F80000FFF723
:1015D00037FE064641F28837D9F80000616800F00E
:1015E0000C00B0EB810F15D0FFF72AFE801BB8422C
:1015F000F2D9032001B0BDE8F08300BF59F8081C00
:1016000089037FF584AFDBE759F8081C49057FF5AE
:101610007EAFD5E7206800F0020100297FF43DAFDE
:1016200049E700BF42F20041C0F2F401D9F80400DA
:10163000D9F80420C0F30210C2F306225143D9F8AE
:1016400004200130B1FBF0F0C2F34161022202EB51
:101650004101B0FBF1F20AE042F20042C0F2F402B2
:1016600005E000BF002200210C283FF48EAFD9F81E
:10167000000045F63401C0F30310C0F60101085C18
:1016800000F01F0022FA00F140F28000C2F20000D8
:1016900040F29C620068C2F20002116001B0BDE835
:1016A000F043FFF7F9BD0000002804BF0120704798
:1016B0002DE9F04383B041F200060446C4F202066D
:1016C000B068F168227800F00C09D00601F0030838
:1016D0001ED42078C00700F08880B9F1080F00F010
:1016E0007D80B9F10C0F08BFB8F1030F76D06068A8
:1016F000B0F5803F07D0B0F5A02F40F023823068CE
:1017000040F480203060306840F48030306024E263
:10171000B9F1000F1CD0B9F10C0F08BFB8F1010FDF
:1017200016D0A1693068002900F0B88140F00100AE
:101730003060FFF785FD05463068800700F1C08105
:10174000FFF77EFD401B02284FF00300F4D92AE387
:101750003068800703D5A069002800F0BD82256AA3
:101760003068000700F12A81D6F89400000900F0E3
:10177000F000854200F228813068B9F1000F40F096
:1017800008003060306820F0F00040EA050030606A
:101790007068E16920F47F4040EA0120706040F009
:1017A0008882B06DC00000F12582B06D40F080509D
:1017B000B065B06D00F0805002900298FFF72EFEE9
:1017C000B16D21F08051B165B0F5007F00F0188255
:1017D000802D40F2558203205DE200BF3068800317
:1017E00003D56068002800F07782207880072DD527
:1017F000B9F1040F1CD0B9F10C0F08BFB8F1020FFA
:1018000016D0E1683068002900F0B68140F480709D
:101810003060FFF715FD0546306840050FD4FFF72F
:101820000FFD401B02284FF00300F5D9BBE200BFBB
:101830003068400503D5E068002800F04D827068EC
:10184000216920F0F85040EA0160706020780007BC
:101850005ED42078400775D4A06A002800F0E882A2
:10186000022840F0E380F068E16A00F003028A4257
:1018700040F0F480226B6FF00F0300F0700103EB77
:101880000212914240F0EA80616B00F4FE42B2EB3A
:10189000012F40F0E380A16B00F40032073918BF3C
:1018A00001218A4240F0DA80E26B0023CFF6E07338
:1018B00003EA025200F4C001A2F50012914240F086
:1018C000CD80216C4FF07E4202EA016100F0C060E1
:1018D00001F17E41884240F0C1803068800100F112
:1018E000A782306840F080703060F06840F080700F
:1018F000F060FFF7A5FC04463068800100F1988293
:10190000FFF79EFC001B02284FF00300F4D94AE2C7
:101910006169D6F89400002972D040F00100C6F841
:101920009400FFF78DFC0546D6F89400800790D40C
:10193000FFF786FC401B0228F6D9032003B0BDE860
:10194000F08300BFB06D5FEAC00808D4B06D40F00E
:101950008050B065B06D00F080500090009847F264
:101960000007C4F200073868C00513D4386840F493
:1019700080703860FFF764FC054600BF3868C0051A
:1019800008D4FFF75DFC401B02284FF00300F5D997
:1019900009E200BFA068012808D0052840F0B08007
:1019A000D6F8900040F00400C6F89000D6F89000F9
:1019B00040F00100C6F89000B1E000BF306800F0D0
:1019C000F00085427FF6D8AEB06DC00000F18A808D
:1019D000B06D40F08050B065B06D00F08050019067
:1019E0000198FFF71BFDB16D21F08051B165B0F595
:1019F000007F00F07D80802D40F2D0800320D8E071
:101A000020F00100C6F89400FFF71AFC054600BF5D
:101A1000D6F8940080077FF51CAFFFF711FC401B40
:101A200002284FF00300F3D9BDE100BFB9F10C0F5C
:101A300000F05281306820F080703060FFF700FCC9
:101A4000044600BF3068800140F1E280FFF7F8FBF8
:101A5000001B02284FF00300F4D9A4E1B9F10C0FE8
:101A600000F03A813068400100F136813068C000F2
:101A700000F13281306820F080703060FFF7E0FBC9
:101A800005463068800140F19181FFF7D9FB401B8A
:101A900002284FF00300F4D985E100BF20F00100D7
:101AA0003060FFF7CDFB0546306880077FF511AE4B
:101AB000FFF7C6FB401B02284FF00300F4D972E188
:101AC000306840F0080030603068D4E9071220F038
:101AD000F00010433060706820F47F4040EA01203D
:101AE0007060F6E5FFF79AFCB0F5007F7FF483AFF6
:101AF000812D5DD30120A02D88BF022059E000BFB9
:101B0000D6F89010002821F00101C6F89010D6F800
:101B1000901021F00401C6F8901000F08580FFF7C6
:101B20008FFB054641F28837D6F89000800700F118
:101B30008D80FFF785FB401BB842F5D9032003B029
:101B4000BDE8F0833168002821F4803131603168CC
:101B500021F48021316000F08380FFF771FB05469E
:101B6000306880033FF541AEFFF76AFB401B6428F5
:101B70004FF00300F4D916E120F480703060FFF7D5
:101B80005FFB0546306840057FF560AEFFF758FB08
:101B9000401B02284FF00300F4D904E1A5F17000C6
:101BA000B0FA80F04009802D08BF022001E000BF9C
:101BB000002042F20001C4F202010A6822F007028A
:101BC00002440A60096801F00701814240F0848004
:101BD000306840F0080030603068D4E9071220F027
:101BE000F00010433060706820F47F4040EA01202C
:101BF00070605EE0FFF712FCB0F5007F7FF4E8ADA7
:101C0000812D47D30120A02D88BF022043E000BFD3
:101C1000F0684FF6FC71CFF6EE610840F0600020EE
:101C200003B0BDE8F08300BFFFF70AFB054641F2B1
:101C3000883700BFD6F89000800707D5FFF700FB74
:101C4000401BB8424FF00300F4D9ACE0B8F1000FEC
:101C50003FF502AEB06D20F08050B065FCE500BFEE
:101C6000FFF7EEFA054600BF306880037FF5BDAD93
:101C7000FFF7E6FA401B64284FF00300F4D992E026
:101C8000A5F17000B0FA80F04009802D08BF022055
:101C900001E000BF002042F20001C4F202010A6824
:101CA00022F0070202440A60096801F0070181423C
:101CB00012D1B068F16810F00C0005D00C282BD1BF
:101CC00001F00301012927D13168090708D4D6F8AA
:101CD0009410090A06E000BF012003B0BDE8F083BC
:101CE0003168090945F6440201F00F01C0F601020E
:101CF00052F8211000280A4618BF00220C2837D1BC
:101D0000F06800F00300022810D0032804BF41F25D
:101D10000021C0F27A010DE004281FD0082823D149
:101D200041F20022C0F27A0222E000BF42F20041FA
:101D3000C0F2F401F068F268C0F30210C2F30622A8
:101D40005143F2680130B1FBF0F0C2F3416102226D
:101D500002EB4101B0FBF1F20AE000BF42F20042A7
:101D6000C0F2F40204E000BF002200210C28C7D01A
:101D7000B06845F63401C0F30310C0F60101085CF9
:101D800000F01F0022FA00F140F28000C2F20000D1
:101D900040F29C620068C2F200021160FFF77CFA18
:101DA00000283FF496AC03B0BDE8F083F06848F239
:101DB0008C01CFF69D1104F12C0700EA010C8ECFA7
:101DC000D4E90F546FF00F0040F2000E00EB021048
:101DD000CFF6E07E41EA0C010EEA05554FF07E4257
:101DE0000843A5F5001502EA046240EA032002F167
:101DF0007E420EF5F014284304EA47371043384377
:101E0000F060306840F080703060F06840F08070C2
:101E1000F060FFF715FA04463068800108D4FFF738
:101E20000FFA001B02284FF00300F5D9BBE700BFF3
:101E3000002003B0BDE8F083411E0020B0EB116F1D
:101E40001CBF012070474EF21002CEF2000251601A
:101E50004EF62351CEF20001F0230B700721906063
:101E600011607047FEE7000010B517A0FEF7C0FB39
:101E700040F69C44C2F2000440F6BC1104F1080094
:101E8000C2F20001002200F09FF8C2B252B1030A70
:101E900046F67050C0F6010013A1FEF781FA00BFAC
:101EA000FEE700BFA068002100F0D4F9A168E0605F
:101EB0000846002100F0DEF9E168206149684068C9
:101EC000C4E9001010BD00BF0D0A54454D504C41EF
:101ED0005445202D20696E697469616C697A61745A
:101EE000696F6E0D0000000061695F6E6574776F49
:101EF000726B5F6372656174655F616E645F696E6A
:101F00006974000015A0FEF773FB40F69C44C2F212
:101F10000004A068B0B100BF04F1080207CA00F0D5
:101F2000B9F90128F8D0A06800F0C0F8030AC2B2DD
:101F300046F67050C0F601000FA1FEF731FA00BF5F
:101F4000FEE700BF46F67050C0F601000EA1112258
:101F50001023FEF725FA00BFFEE700BF54454D50A1
:101F60004C415445202D2072756E202D206D6169E5
:101F70006E206C6F6F700D0061695F6E6574776FB6
:101F8000726B5F72756E000050726F6365737320C1
:101F9000686173204641494C45440000FEE700005B
:101FA000FEE700007047000070470000FFF74EB9E1
:101FB0004EF68850CEF20000016841F470010160D5
:101FC00070470000FEE700002DE9F04790B016468C
:101FD00040F6C0120F4600250524C2F2000200217F
:101FE00001238146CDE9004510F022F88246000623
:101FF00004D0504610B0BDE8F08700BF0DF10808CE
:10200000404600F037F858B38FB1BDF8160070B1F4
:1020100008F10C04002500BF57F82520204629466A
:102020000FF05EFEBDF8160001358542F4D386B18F
:10203000BDF80E0068B108F10404002556F825200B
:10204000204629460FF04CFEBDF80E0001358542B2
:10205000F4D3D9F8000002A900F02AF80028C8D16A
:10206000D9F8000010F036F88246504610B0BDE8AE
:10207000F0870000002804BF0020704780B584B0BE
:1020800045F27061C0F60101D1E90012039245F2F8
:102090007862C0F60102D2E900230291CDE9002363
:1020A000694602AA0FF058FF04B080BD10F012B8C4
:1020B0002DE9F04F81B00F46824610F019F8002844
:1020C00062D040F6B049C2F20009064648460121F6
:1020D0003A460FF077FF40F2F40540F2840440F2F4
:1020E0000C0B80460028C2F20005C2F20004C2F2C6
:1020F000000B4DD0286C29682A6940F08040286484
:10210000D9F8000041F0804142F08042296000F19E
:1021100068012A612269C5E9021100F59D61A96182
:10212000E96142F08041226A216100F5A561A16167
:10213000E16142F08041216241F2A821DBF84020B8
:1021400001442B6DA162E16242F08041CBF8401066
:1021500041F20831DBF8502043F080430144C5E9E7
:1021600012002B6500F14803CBF84810CBF84C1057
:1021700042F0804100F59950C5E91633CBF8501074
:10218000CBE9160009E000BF002001B000F05EB806
:1021900030463021122210F08DF809F1040001219F
:1021A0003A460FF0F9FE0746002841D0D9F804005E
:1021B00041F690210144CBE9021142F6E0110144BD
:1021C000C5E91A1142F6043140F270720144C2F2BC
:1021D0000002C2E9021100F51F61C4E91A1142F6BA
:1021E00090010144C5E90A1143F290310144C5E967
:1021F0000E1100F50961C4E9161141F29071014414
:10220000C4E9021142F610310144C4E9121144F24A
:1022100090110144CBE90E1100F13001C4E90E0028
:10222000CBE91A00CBE90A11CBE9060005E000BFB3
:1022300030463021132210F03DF850460FF0E8FFF1
:10224000384000EA080001B000F000B830BCBDE83A
:10225000C08F0000002818BF0FF0C8BE40F6C010A5
:1022600040F20012C2F20000CAF2C01202600FF087
:10227000BDBE0000002818BF10F022B840F6C01004
:1022800040F20012C2F20000CAF2C012026010F066
:1022900017B800000FF0E4BF96B0FEF7E5FF05A801
:1022A00004302421FEF718FA4FF40070FFF770F89D
:1022B00020B1EFF3108072B6FEE700BF4FF48071DB
:1022C000089110210991012111910A2102201291F6
:1022D00007210590CDE90F00CDE91310159005A851
:1022E000FFF7E2F920B1EFF3108072B6FEE700BF0E
:1022F0000F200090032001900020CDE902000490FF
:1023000068460421FFF792F820B1EFF3108072B60F
:10231000FEE700BFFFF7A8FDFFF7F4FDFCE70000B4
:1023200000000000000000000000000000000000AD
:10233000000000000000000000000000000000009D
:10234000000000000000000000000000000000008D
:10235000000000000000000000000000000000007D
:020000040801F1
:100000002DE9F04FA4B0309E1393359B11901291BF
:10001000109213F00108CDF87C80319C329D1CBFFA
:100020000234023504FB05F413F002052F9F1E95E0
:100030004FF0010C19BF0B94CDF828C0CDF82CC09F
:100040000A9703F00308B8F1030F0CBF0223002343
:100050000C93012F40F30F82339DA6EB860405EB32
:10006000040333441B93C5F10203A3EB060004EB26
:10007000430CB444CDF870C0ACF1030CCDF874C09F
:1000800006F0030CCDF88CC00CEBCC0321934FEAA7
:10009000A60303EBC30CCDF880C006EBC60CCDF86D
:1000A00088C0DDF8BCB02E9B4FEA5B0B03EB8B0CDA
:1000B000CDF858C02E982D99379A0E900D910F9229
:1000C0000E9AB2F90030B2F90240CDE902340D9A2D
:1000D000D2E90012CDE900120F9AD2E90012CDE95F
:1000E0000412002BCCBF00204FF0FF30152BC8BFEF
:1000F0000120002CCCBF00214FF0FF31152CC8BFD0
:100100000121CDE9060100F037BC349B002B40F003
:10011000048418461A46359D109CD4E90013034404
:100120000A44CDE90823032D139A03D1319B03F12F
:1001300003031A441592DDF8C880B8F1000F00F0EF
:100140007B81119CCDF868801794319B5B1000F087
:10015000628118941993189C389DDDE90823104694
:100160001946042E40F301814FEAA60ED4F8008010
:10017000B5E8001E2FFA88F72FFA98F827FB0B3303
:1001800027FB092228FB0A2228FB0C3354F806809F
:1001900004EB46042FFA88F72FFA98F827FB0B1187
:1001A00027FB090028FB0C1128FB0A00B5E8001EFC
:1001B00027FB092227FB0B3328FB0A2228FB0C33E1
:1001C000D4F800802FFA88F72FFA98F827FB090057
:1001D00027FB0B1128FB0A0028FB0C11B5E8001EB9
:1001E00027FB092227FB0B3328FB0A2228FB0C33B1
:1001F00054F806802FFA88F72FFA98F827FB0900A1
:1002000027FB0B1128FB0A0028FB0C11DDF86C8082
:10021000444400BFD4F80080B5E8001E2FFA88F7E8
:100220002FFA98F827FB0B3327FB092228FB0A2219
:1002300028FB0C3354F8068004EB46042FFA88F7A9
:100240002FFA98F827FB0B1127FB090028FB0C114C
:1002500028FB0A00B5E8001E27FB092227FB0B3309
:1002600028FB0A2228FB0C33D4F800802FFA88F7E9
:100270002FFA98F827FB090027FB0B1128FB0A002F
:1002800028FB0C11B5E8001E27FB092227FB0B33C6
:1002900028FB0A2228FB0C3354F806802FFA88F733
:1002A0002FFA98F827FB090027FB0B1128FB0A00FF
:1002B00028FB0C11DDF86C80444400BFD4F80080AA
:1002C000B5E8001E2FFA88F72FFA98F827FB0B33B2
:1002D00027FB092228FB0A2228FB0C3354F806804E
:1002E00004EB46042FFA88F72FFA98F827FB0B1136
:1002F00027FB090028FB0C1128FB0A00B5E8001EAB
:1003000027FB092227FB0B3328FB0A2228FB0C338F
:10031000D4F800802FFA88F72FFA98F827FB090005
:1003200027FB0B1128FB0A0028FB0C11B5E8001E67
:1003300027FB092227FB0B3328FB0A2228FB0C335F
:1003400054F806802FFA88F72FFA98F827FB09004F
:1003500027FB0B1128FB0A0028FB0C11DDF870802D
:10036000BEF1010E44447FF401AF16F0030700F321
:10037000FF80DDF810E0DDF800A0DDF808B0DDF862
:1003800018C0159D0A9FDDF82C80A844BCF1000F11
:1003900040F02D834FEA42024FEA400052FB0AE24E
:1003A00050FB0AE042FA0BF240FA0BF002F30702AC
:1003B00000F307002A70E855DDF814E0DDF804A02A
:1003C000DDF80CB0DDF81CC0BCF1000F40F0388344
:1003D0004FEA43034FEA410153FB0AE351FB0AE1B1
:1003E00043FA0BF341FA0BF103F3070301F307019F
:1003F00088F8003008F80710159A0A99199B309E62
:10040000189D02EB4102159205EB46051895013B3C
:1004100019933FF7A0AE319B13F0010340F04181E7
:100420000C9B1A441592179C33991A9B0C441794F1
:10043000013B1A937FF489AE2299129A02EB410292
:1004400012920B99139A02EB410213920D980F9A94
:10045000109B0E9C169D00F108000D9002F1080201
:100460000F9203F10803109304F10404A5420E94C3
:100470007FF426AE139F2F9B3299319D13F0010319
:1004800071D000296FD01A91002D6CD00F9B0D9C5C
:10049000DDF8388018682168B8F900B00091BBF128
:1004A000000FCCBF00224FF0FF32BBF1150FC8BFC9
:1004B0000122359B03F00303032B03BF03377F198E
:1004C000022600260B96109BDDF8CCA0349E1C68FB
:1004D000DDF8C090119B1793109409EB4909DDF8E2
:1004E0005CC0319919911099DDF84880B9F1000F7D
:1004F0001ADD4D461CF91A3018F91940A3EB060312
:10050000013D04FB03111CF90A3018F90940A3EB63
:10051000060304FB03111CF9013B18F9014BA3EB83
:10052000060304FB0311E5D1009C002A40F0B182D0
:100530004FEA410151FB040141FA0BF101F30701BC
:1005400039700A9C3099199B2744ACEB410C013B54
:100550001993C8D10B991A9B179C0F4454441794B4
:10056000013B1A93BBD14FF0000024B000F0E0BA79
:10057000239F002F3FF4FDAEDDF86CE0DDF87490B2
:1005800094F900C014F9068035F902BB35F902ABC5
:100590001BFB0C221BFB08001AFB0C331AFB081177
:1005A00004EB460435F902BB35F902AB94F900C0FF
:1005B0001BFB08221BFB0C001AFB08331AFB0C1157
:1005C00014F9068035F902BB35F902AB1BFB0800B4
:1005D0001BFB0C221AFB0C331AFB0811744494F910
:1005E00000C014F9068035F902BB35F902AB1BFBDC
:1005F0000C221BFB08001AFB0C331AFB081104EB3E
:10060000460435F902BB35F902AB94F900C01BFB77
:1006100008221BFB0C001AFB08331AFB0C1114F9FF
:10062000068035F902BB35F902AB1BFB08001BFB4A
:100630000C221AFB0C331AFB0811744494F900C005
:1006400014F9068035F902BB35F902AB1BFB0C220D
:100650001BFB08001AFB0C331AFB081104EB4604C1
:1006600035F902BB35F902AB94F900C01BFB082237
:100670001BFB0C001AFB08331AFB0C1114F9068043
:1006800035F902BB35F902AB1BFB08001BFB0C2242
:100690001AFB0C331AFB08114C44013F3FF770AFB3
:1006A00067E61798319B012B1EBF1B9BC018801B50
:1006B000DDE908E5DDF8CCC04FEA4C0ACAF1040ACE
:1006C000389B5FEAA60B00F091800268B3E89003C4
:1006D0002FFA82F12FFA92F221FB04EE22FB07EEB1
:1006E00022FB095521FB08558259B3E890032FFAE4
:1006F00082F12FFA92F221FB04EE22FB07EE22FB9D
:10070000095521FB085550F81620B3E890032FFA3D
:1007100082F12FFA92F221FB04EE22FB07EE22FB7C
:10072000095521FB085560440268B3E890032FFA8D
:1007300082F12FFA92F221FB04EE22FB07EE22FB5C
:10074000095521FB08558259B3E890032FFA82F12D
:100750002FFA92F221FB04EE22FB07EE22FB095551
:1007600021FB085550F81620B3E890032FFA82F1C8
:100770002FFA92F221FB04EE22FB07EE22FB095531
:1007800021FB085560440268B3E890032FFA82F118
:100790002FFA92F221FB04EE22FB07EE22FB095511
:1007A00021FB08558259B3E890032FFA82F12FFA02
:1007B00092F221FB04EE22FB07EE22FB095521FBFE
:1007C000085550F81620B3E890032FFA82F12FFA5B
:1007D00092F221FB04EE22FB07EE22FB095521FBDE
:1007E00008555044BBF1010B3FF76FAF16F0030BF8
:1007F0005FD090F90010825710F916A033F9024B20
:1008000033F9027B33F9028B33F9029B11FB04EEBF
:1008100011FB075512FB08EE12FB095533F9024B89
:1008200033F9027B1AFB04EE1AFB0755604490F97A
:100830000010825710F916A033F9024B33F9027BEE
:1008400033F9028B33F9029B11FB04EE11FB0755C0
:1008500012FB08EE12FB095533F9024B33F9027B08
:100860001AFB04EE1AFB0755604490F900108257FA
:1008700010F916A033F9024B33F9027B33F9028BDE
:1008800033F9029B11FB04EE11FB075512FB08EE36
:1008900012FB095533F9024B33F9027B1AFB04EEC4
:1008A0001AFB0755A0EB4C0000F10100BBF1010B56
:1008B0009FDC0B9B159901EB0302DDF800A0049C63
:1008C000029B0698002840F018814FEA4E0E5EFB0E
:1008D0000A4E4EFA03FE0EF3070E81F800E0DDF833
:1008E00004A0059C039B0798002840F0EC804FEA89
:1008F000450555FB0A4545FA03F505F3070515704F
:100900001F9B1E9D002B14BF03230123002D08BF36
:100910002F9B159A1A44159285E538994FF00003DC
:100920001A46209898B1B1E8001E02FA89F202FA3C
:10093000A9F202FA8AF202FAAAF203FA8BF303FA94
:10094000ABF303FA8CF303FAACF30138EBD1219843
:1009500038B151F8044B02FA84F203FAA4F30138D7
:10096000F7D1C2F10002C3F10003349901FB02F296
:1009700001FB03F0FFF7CFBB1298229C389A5FEA85
:10098000A60B19D04FF0090A056850F804802FFA19
:1009900095F72FFA85F52FFA98F92FFA88F8A2E83B
:1009A000A0033044BAF1010AEEDCA0EB040000F130
:1009B0000400BBF1010BE5DC16F0030B3FF4A5AB23
:1009C0004FF0090A90F9005010F9048022F8025BF8
:1009D00022F8028B3044BAF1010AF3DCA0EB0400E8
:1009E00000F10100BBF1010BEADCFFF78EBB1CF14B
:1009F000010C14D04FF0010C0CFA0BFC4FEAAC0CBC
:100A000052FB0AC24FEA420242FA0BF2724450FB16
:100A10000AC04FEA400040FA0BF07044C6E4CBF144
:100A2000010C02FA0CF202F31F0252FB1AF200FA56
:100A30000CF000F31F0050FB1AF072447044B5E450
:100A40001CF1010C14D04FF0010C0CFA0BFC4FEA16
:100A5000AC0C53FB0AC34FEA430343FA0BF3734452
:100A600051FB0AC14FEA410141FA0BF17144BBE469
:100A7000CBF1010C03FA0CF303F31F0353FB1AF33E
:100A800001FA0CF101F31F0151FB1AF17344714497
:100A9000AAE4531C0DD04FF0010303FA0BF34FEA05
:100AA000A30351FB04314FEA410141FA0BF1014428
:100AB00044E5CBF1010301FA03F101F31F0151FBFE
:100AC00014F101443AE501300DD04FF0010000FA75
:100AD00003F04FEAA00055FB0A054FEA450545FA29
:100AE00003F5254409E7C3F1010005FA00F505F314
:100AF0001F0555FB1AF52544FFE601300DD04FF0D8
:100B0000010000FA03F04FEAA0005EFB0A0E4FEA74
:100B10004E0E4EFA03FEA644DDE6C3F101000EFAC6
:100B200000FE0EF31F0E5EFB1AFEA644D3E600BFC6
:100B300030BCBDE8C08F2DE9F04F86B09DF85870ED
:100B400000910392002F059318BF0123109C04FB12
:100B5000033304930F9D14BF2F4601270197BDF85F
:100B600044305B0800F09F80DDF850B0139A02EB30
:100B700083030293DDF848E0039F5FEA9E08DDF8F7
:100B800000C057F8046B57F8043B03971A463146E8
:100B900022D05CF81E705CF8049B50F804AB50F84F
:100BA000045B2AFB09662AFB071125FB093325FB99
:100BB00007225CF81E705CF8049B50F804AB50F8F8
:100BC000045B2AFB09662AFB071125FB093325FB79
:100BD0000722B8F10108DCD10EF003078FB13CF910
:100BE0001E803CF902AB30F9025B30F9029B0AFB34
:100BF000056609FB0A3308FB051109FB0822013FC2
:100C0000EDDCDDF84CA0159F3AF9024B57F804CB08
:100C10005BF8045BC4F1150999EA040940F3C88044
:100C20004FEA46064FEA410156FB05C651FB05C196
:100C300046FA04F641FA04F13AF9024B57F804CBAC
:100C40005BF8045BC4F1150999EA040940F3998043
:100C50004FEA43034FEA420253FB05C352FB05C26E
:100C600043FA04F342FA04F206F30706DDF80490AF
:100C7000179CDDF810802670A04401F3070188F866
:100C8000001003F3070304F8093002F3070208F821
:100C9000092004EB49021792CDF84CA0029C15974D
:100CA000A2457FF467AF119B13F0010354D0BDF848
:100CB00048E0039BDDF800C019685FEA9E070CEB73
:100CC0004E040E4615D05CF81E505CF8048B50F8AC
:100CD00004AB50F8043B2AFB08662AFB05115CF8BC
:100CE0001EA05CF8048B23FB086623FB0A11013F5E
:100CF000E9D11EF003070BD03CF81E303CF8029BF4
:100D000030F902AB19FB0A66013F13FB0A11F3DC51
:100D1000DDF84CA0159FBAF90040D7F800C0DBF809
:100D20000050C4F1150999EA040958DD4FEA460656
:100D30004FEA410156FB05C651FB05C146FA04F6D0
:100D400041FA04F106F30706179A049C167001F3A2
:100D500007011155019B1A441199169B109C33B140
:100D60000F9B04F1020003FB1100104406E0A2EB0C
:100D70000100059A04F1020402FB040006B000F031
:100D800078B8002C42DD4FF0010909FA04F94FEA66
:100D9000A90953FB05934FEA430343FA04F3634461
:100DA00052FB05924FEA420242FA04F262445BE7C8
:100DB000002C3CDD4FF0010909FA04F94FEAA909BA
:100DC00056FB05964FEA460646FA04F6664451FB82
:100DD00005914FEA410141FA04F161442CE7002CEE
:100DE00036DD4FF0010909FA04F94FEAA90956FB6B
:100DF00005964FEA460646FA04F6664451FB05910D
:100E00004FEA410141FA04F161449BE7C4F1010951
:100E100003FA09F303F31F0353FB15F302FA09F274
:100E200002F31F0252FB15F2634462441CE7C4F153
:100E3000010906FA09F606F31F0656FB15F601FA34
:100E400009F101F31F0151FB15F166446144F3E61A
:100E5000C4F1010906FA09F606F31F0656FB15F65A
:100E600001FA09F101F31F0151FB15F166446144D8
:100E700068E730BCBDE8C08F000000000000000043
:100E80002DE9F04F86B000BF00BFDDF848B0BBF1E0
:100E9000000FCCBF4FF0000C4FF0FF3CBBF1150F23
:100EA000C8BF4FF0010CCDF800C0019092469946A2
:100EB000CDF81490DDF84CB00F464FEAAA06039621
:100EC0000AF003060496BDF83C400BEB840202EBEB
:100ED00044020292002C00F03281039EDDF814E0FF
:100EE000DDF80480BEE83F00CDF814E0013E7DDD72
:100EF00057F804EBB8E800062FFA9EFC2FFA8EFE96
:100F00002CFB0A002EFB090057F804EB2FFA9EFC7D
:100F10002FFA8EFE2CFB0A112EFB091157F804EB59
:100F20002FFA9EFC2FFA8EFE2CFB0A222EFB0922A2
:100F300057F804EB2FFA9EFC2FFA8EFE2CFB0A3397
:100F40002EFB093357F804EB2FFA9EFC2FFA8EFE86
:100F50002CFB0A442EFB094457F804EB2FFA9EFCA5
:100F60002FFA8EFE2CFB0A552EFB095557F804EB81
:100F7000B8E800062FFA9EFC2FFA8EFE2CFB0A0022
:100F80002EFB090057F804EB2FFA9EFC2FFA8EFE79
:100F90002CFB0A112EFB091157F804EB2FFA9EFCCB
:100FA0002FFA8EFE2CFB0A222EFB092257F804EBA7
:100FB0002FFA9EFC2FFA8EFE2CFB0A332EFB0933F0
:100FC00057F804EB2FFA9EFC2FFA8EFE2CFB0A44F6
:100FD0002EFB094457F804EB2FFA9EFC2FFA8EFEE5
:100FE0002CFB0A552EFB0955023E81DC002E3DDB11
:100FF00057F804EBB8E800062FFA9EFC2FFA8EFE95
:101000002CFB0A002EFB090057F804EB2FFA9EFC7C
:101010002FFA8EFE2CFB0A112EFB091157F804EB58
:101020002FFA9EFC2FFA8EFE2CFB0A222EFB0922A1
:1010300057F804EB2FFA9EFC2FFA8EFE2CFB0A3396
:101040002EFB093357F804EB2FFA9EFC2FFA8EFE85
:101050002CFB0A442EFB094457F804EB2FFA9EFCA4
:101060002FFA8EFE2CFB0A552EFB0955049EEEB17D
:1010700038F9029B97F900E097F901C01EFB0900BF
:101080001CFB091197F902E097F903C01EFB092226
:101090001CFB093397F904E097F905C01EFB0944CE
:1010A0001CFB0955013E07F10607E1D1009EDDF862
:1010B00044E0DDF848C0DDF840A0002E42D14FEA00
:1010C00040004FEA410150FB0EA051FB0EA140FA37
:1010D0000CF041FA0CF14FEA42024FEA430352FB93
:1010E0000EA253FB0EA342FA0CF243FA0CF34FEAA2
:1010F00044044FEA450554FB0EA455FB0EA544FAE3
:101100000CF445FA0CF500F3070001F3070102F3B4
:10111000070203F3070304F3070405F307050BF8BD
:10112000010B0BF8011B0BF8012B0BF8013B0BF823
:10113000014B029B0BF8015B9B457FF4CEAE06B0E2
:1011400000F068BA16F101083CD04FF0010808FA27
:101150000CF84FEAA80850FB0E804FEA400040FA16
:101160000CF0504451FB0E814FEA410141FA0CF161
:1011700051444FF0010808FA0CF84FEAA80852FB56
:101180000E824FEA420242FA0CF2524453FB0E83A3
:101190004FEA430343FA0CF353444FF0010808FAB3
:1011A0000CF84FEAA80854FB0E844FEA440444FAB2
:1011B0000CF4544455FB0E854FEA450545FA0CF5F1
:1011C0005544A0E7CCF1010800FA08F000F31F0035
:1011D00050FB1EF001FA08F101F31F0151FB1EF153
:1011E00050445144CCF1010802FA08F202F31F0204
:1011F00052FB1EF203FA08F303F31F0353FB1EF323
:1012000052445344CCF1010804FA08F404F31F04D7
:1012100054FB1EF405FA08F505F31F0555FB1EF5F2
:10122000544455446FE700BFAFF30080AFF3008034
:101230002DE9F04F87B0DDF850B0BBF1000FCCBF07
:101240004FF0000C4FF0FF3CBBF1150FC8BF4FF043
:10125000010CCDF800C0019092469946CDF814904B
:10126000DDF854B00F46CDF818B04FEAAA06039641
:101270000AF003060496BDF840400BEB840202EB33
:1012800044020292129DC5F1000BCBEA0B4B002CDD
:1012900000F04C81039EDDF814E0DDF80480BEE828
:1012A0003F00CDF814E0013E40F38B8057F804EB8B
:1012B00058F8049B4FEA392A2FFA9EFC2FFA8EFE2B
:1012C0002BFA89F92BFA8AFA2CFB0A002EFB09006B
:1012D00057F804EB2FFA9EFC2FFA8EFE2CFB0A1116
:1012E0002EFB091157F804EB2FFA9EFC2FFA8EFE05
:1012F0002CFB0A222EFB092257F804EB2FFA9EFC46
:101300002FFA8EFE2CFB0A332EFB093357F804EB21
:101310002FFA9EFC2FFA8EFE2CFB0A442EFB09446A
:1013200057F804EB2FFA9EFC2FFA8EFE2CFB0A5581
:101330002EFB095557F804EB58F8049B4FEA392A5D
:101340002FFA9EFC2FFA8EFE2BFA89F92BFA8AFAD5
:101350002CFB0A002EFB090057F804EB2FFA9EFC29
:101360002FFA8EFE2CFB0A112EFB091157F804EB05
:101370002FFA9EFC2FFA8EFE2CFB0A222EFB09224E
:1013800057F804EB2FFA9EFC2FFA8EFE2CFB0A3343
:101390002EFB093357F804EB2FFA9EFC2FFA8EFE32
:1013A0002CFB0A442EFB094457F804EB2FFA9EFC51
:1013B0002FFA8EFE2CFB0A552EFB0955023E3FF7F5
:1013C00075AF002E43DB57F804EB58F8049B4FEA47
:1013D000392A2FFA9EFC2FFA8EFE2BFA89F92BFA66
:1013E0008AFA2CFB0A002EFB090057F804EB2FFAAF
:1013F0009EFC2FFA8EFE2CFB0A112EFB091157F8CA
:1014000004EB2FFA9EFC2FFA8EFE2CFB0A222EFBF9
:10141000092257F804EB2FFA9EFC2FFA8EFE2CFBC4
:101420000A332EFB093357F804EB2FFA9EFC2FFAF0
:101430008EFE2CFB0A442EFB094457F804EB2FFACE
:101440009EFC2FFA8EFE2CFB0A552EFB0955049E9E
:101450000EB3DDF848A018F9019B97F900E097F961
:1014600001C0A9EB0A091EFB09001CFB091197F931
:1014700002E097F903C01EFB09221CFB093397F910
:1014800004E097F905C01EFB09441CFB0955013E09
:1014900007F10607DFDC009EDDF84CE0DDF850C008
:1014A000DDF844A0002E44D14FEA40004FEA41014C
:1014B00050FB0EA051FB0EA140FA0CF041FA0CF1CA
:1014C0004FEA42024FEA430352FB0EA253FB0EA324
:1014D00042FA0CF243FA0CF34FEA44044FEA450592
:1014E00054FB0EA455FB0EA544FA0CF445FA0CF57A
:1014F000069E00F3070001F3070102F3070203F35E
:10150000070304F3070405F3070506F8010B06F8C3
:10151000011B06F8012B06F8013B06F8014B029B64
:1015200006F8015B06969E427FF4B4AE07B000F069
:1015300071B816F101083CD04FF0010808FA0CF818
:101540004FEAA80850FB0E804FEA400040FA0CF02A
:10155000504451FB0E814FEA410141FA0CF15144D4
:101560004FF0010808FA0CF84FEAA80852FB0E8267
:101570004FEA420242FA0CF2524453FB0E834FEA06
:10158000430343FA0CF353444FF0010808FA0CF8F4
:101590004FEAA80854FB0E844FEA440444FA0CF4C2
:1015A000544455FB0E854FEA450545FA0CF5554464
:1015B0009EE7CCF1010800FA08F000F31F0050FB91
:1015C0001EF001FA08F101F31F0151FB1EF1504416
:1015D0005144CCF1010802FA08F202F31F0252FB57
:1015E0001EF203FA08F303F31F0353FB1EF35244E6
:1015F0005344CCF1010804FA08F404F31F0454FB2B
:101600001EF405FA08F505F31F0555FB1EF55444B5
:1016100055446DE730BCBDE8C08F10B54169044644
:1016200088472069A04200D1002010BD2DE9F04F6D
:10163000002699B00F4605463446B0464CE0A868EF
:10164000C4EBC4038946426802EB83020E928068B1
:1016500010AA00EBC40A2C480D9251F8082F006A1A
:10166000120A62F31F200190D1F804B01C2105A8D2
:10167000EFF732F8D9F81800006800F09BFA0590EF
:10168000D9F81800806806905FEA0A0009D0C0F80F
:101690000080D9F80010416029B1498819B10121B1
:1016A00002E0404603E00021016001B900200790FC
:1016B000D9F818001C2205A9406809900198CDE9C5
:1016C0000A0B0D98EEF7D6FF1C2210A90E98EEF724
:1016D000D1FF761CB6B2641C0DB1288800E0002052
:1016E000A04205D9686818B150F824100029A6D185
:1016F0001EB1A8684068386001E0C7F8008019B0E2
:10170000304600F003B80000D054010830BCBDE8FA
:10171000C08F0021C0F34342042A01D0082A06D119
:10172000C0F3C612C0F34150C240012191400846A7
:10173000704730380A2801D20120704700207047D6
:1017400070B505460C4648886988884202D9AAB116
:10175000002070BD92B100260CE000BF6168C6EBAE
:10176000C6006A6801EB800102EB80001C22EEF7E4
:1017700081FF761C6088B042F0D801E06068686044
:101780006088688020882880012070BD30B500B353
:10179000F9B1F2B15268E2B10F4C1368A34203D021
:1017A0000260012913D014E00023121D07E000BFDE
:1017B00052F82350A54204D040F823505B1C8B42C2
:1017C000F6D38B4205D152F82300A04201D101206B
:1017D00030BD002030BD0000DECAFAA170B50D4654
:1017E000060014461AD0CCB1104600F08BFA00B1B6
:1017F0006088A84212D10023042109E0C3EBC30290
:10180000606801EB8202805820B146F823005B1C1F
:10181000AB42F3D3AB4201D1012070BD002070BDBB
:101820000349884201D10120704700207047000021
:10183000DECAFAA12DE9FE4F92468946040003D084
:10184000208E20B1656B03E0002000F0FBB800257E
:10185000002060832083207CC043800702D0302298
:101860001121DCE0B9F1000F61D0D5B32888C0B3F5
:10187000D9F818000026D0F8008056E0A868006863
:1018800000EB0610019052D058B3C6EBC600029090
:1018900009EB80000121009000F03EFADBF81830DF
:1018A000596888421AD80098DBF80C208069D768FC
:1018B000D0F80CC0674511D19768D0F808C06745CB
:1018C0000CD152684068824208D1186800F062F971
:1018D0000746584602F004FD874203D2182212211F
:1018E0009DE024E0DBF81800006800F063F902993D
:1018F00020F07E4259F8210020F07E40824201D043
:101900001922ECE70098406888B100988069006867
:1019100078B14146404500D208468046DDE90010D6
:101920005A4600F092F8761C2DB1288804E0172260
:10193000D5E72122D3E70020B04206D9686820B15C
:1019400050F826B0BBF1000F98D1BAF1000F74D057
:10195000208E012806D9656B0C3503D0288808B184
:10196000002658E0182259E0A868006800EB061B22
:101970003BD0BBF1000F38D0C6EBC60001900AEB9C
:1019800080000121009000F0C7F9D9F8183059689B
:101990008842E7D80098D9F80C208069D768D0F839
:1019A0000CC06745DED19768D0F808C06745D9D12B
:1019B000526840688242D5D1186800F0EBF80746BB
:1019C000484602F08DFC8742CCD3D9F81800006855
:1019D00000F0F0F820F07E4201985AF8200020F044
:1019E0007E40824203D0192218E0172216E00098A8
:1019F00040680028F9D000988069006868B14146C5
:101A0000404500D2084680464A465846009900F0B4
:101A10001CF8761C3DB1288806E0212213212046BF
:101A200000F048FC10E70020B04206D9686820B1F9
:101A300050F82690B9F1000F96D1A4F818804FF015
:101A4000010002E71EBCBDE8E08F70B504460E46FB
:101A50001546104602F044FC0146A060B0690068DB
:101A60004843E06071686160726810442060A86952
:101A70000268920007D4D0E90223D21A114481608F
:101A8000A9696068C86070BD70B50646002521E090
:101A9000B068006800EB051488690268920005D5FB
:101AA0008168A268606802F0E9FD08E0D0E90223DD
:101AB000D21A63681A44826089696068C860D4E990
:101AC0000101084460602168884201D3E068081A77
:101AD0006D1C60600EB1308800E00020A84206D97D
:101AE0007068002803D050F825100029D0D170BDAF
:101AF0002DE9F0410646002529E0B16883690968AF
:101B000001EB051419688900D4E901120DD5986814
:101B100002F0B4FDD4E90101084460602168884204
:101B200001D3E068081A606010E00A44626021682E
:101B30008A4201D3E2688A1A62608169D1E9023778
:101B4000DB1B1A448A6080696168C1606D1C0EB13C
:101B5000308800E00020A84206D97068002803D031
:101B600050F825000028C8D1BDE8F08170B579B1E2
:101B7000C0F3C6156943C91D21F00704C0F34151E4
:101B8000CC40FFF7C6FD00FB0540C01DC00870BD7E
:101B9000002070BD59B1C0F3C6125143C91D21F0D8
:101BA0000701C0F34150C140C91DC808704700205B
:101BB0007047000030B54021C0F34342022A19D0DB
:101BC0003A4A20F07E439C1A4D01934263D028DCB0
:101BD000374AA3EB020493425DD018DC402B5BD064
:101BE000403BB3F5802350D0802B3DD0B3F5806FC0
:101BF00052D134E0C0F3C051C905C0F3C61241EA66
:101C0000C21100F07F02114341F4802144E0A4F5A9
:101C10004074F93C26D00F2C3AD0AC423CD1254937
:101C20003AE0254BE21A9C4229D00CDC234AA21848
:101C300013D0B2F5F83F1FD0214BD2181AD0B2F50D
:101C4000607F29D112E0A2F54072F93A10D00F2A34
:101C500018D0AA4220D11B491EE01B491CE01449A0
:101C6000C91F19E0194917E0194915E0194913E08E
:101C7000194911E019490FE0184980390CE015495C
:101C8000C91D09E014490F3106E01149803903E00C
:101C90000E490F3100E0114600F080420A4300F087
:101CA0000051114300F00060084330BD40040600BD
:101CB000470404004010040007007E0000F483FF86
:101CC000800FFEFF40108400401082004008040096
:101CD000C00004004004840040088400C000840068
:101CE00070B514460D46064600F00CF840B1706819
:101CF000C5EBC50110EB810002D04460012070BD2E
:101D0000002070BD28B1416819B1408808B1012098
:101D1000704700207047000010B502002AD0164B13
:101D20001068B3EBC01F03D0144BB3EBC01F01D13D
:101D3000012000E0002008429069406802D01F3076
:101D400020F01F005369D9B2012900D000211C0ADC
:101D500007E0012907D0936953F821305843491C03
:101D60001AB1234602E00123F8E700238B42F0DC9E
:101D7000002800DC002010BD00600042006000026E
:101D800008B509A10968009148B101789DF80020C3
:101D9000914204D104226946EEF740FC08B10020CC
:101DA00008BD012008BD0000038404842DE9F04132
:101DB000066C816B04460025C163CEB1D9B1012008
:101DC000626CB0470CE00220626CB047E06BFFF73A
:101DD00024FC07460320626CE16BB0476D1CE7638F
:101DE000E16B0029EFD106E0FFF717FC6D1CE06303
:101DF000E06B0028F8D12846BDE8F08103460020BA
:101E0000996B002908D0CB600A69401C8A4203D034
:101E1000002A01D01146F6E770472DE9F041846BA6
:101E2000002594B1012600272079C00707D0216A38
:101E3000204611B18847304600E038460544206905
:101E4000A04202D008B10446EEE72846BDE8F08182
:101E5000F0B50024059F0460446084600D69264647
:101E60006D4221E0002D06DAD0F800C00CF1010C23
:101E7000C0F800C014E0D2F808C0D7F808E0ACEB16
:101E8000050CF44506DAD0F808C00CF1010CC0F8D6
:101E900008C005E0D0F804C00CF1010CC0F804C083
:101EA000D1F808C0761C6544D3F808C0B445D9DC25
:101EB0000568C560456805618568C0E90554C46169
:101EC00004624C696442002515E0002C03DA86693F
:101ED000761C86610CE05668D7F804C0361B664550
:101EE00003DA066A761C066202E0C669761CC661E1
:101EF000CE686D1C34445E68AE42E6DCF0BDD0E9CD
:101F00000621012322B149B18384521E826109E076
:101F100021B100228284491EC16103E08384016AE9
:101F2000491E0162C16801600169416041698160C7
:101F300070470168012219B1C284491E01607047CF
:101F4000416821B1828CC284491E41607047C284BD
:101F50008168491E8160704710B570B169B162B186
:101F6000074C0460D1E90041C0E90141D2E9001207
:101F7000C0E903120123184610BD002010BD000067
:101F8000DECAFAA1016810B1024A8A4300D00020DB
:101F9000704700000001C0A130B44AB140B139B16E
:101FA000074C1368A34206D130BC0C32FFF716BCB5
:101FB00030BC0020704730BC1C32FFF7E7BB00008C
:101FC000DECAFAA130B44AB140B139B1064C136847
:101FD000A34206D130BC121DFFF700BC30BC00206C
:101FE000704730BCFFF7D2BBDECAFAA1F8B50E4687
:101FF000FFF7C8FF04000AD000270097208E00B129
:10200000606B6946FFF712FB050006D00BE010225B
:10201000114600F04FF90020F8BD1822112120468A
:1020200000F048F9009706B135800098F8BD00002F
:102030002DE9F04F89B00500DDE912104FF0000ADC
:10204000564663F30706CDE9011361F30F261D4FD2
:102050009146544660F31746834618D0C5F8009061
:1020600000F0E5F9B8B1B846BF8AC6F30721F0B26F
:10207000002200F05BF90646C7F30721F8B2002200
:1020800000F054F9864208D0D8F804400EE0F86910
:1020900009B000F01BB83C6808E00BA00068009095
:1020A0006846FFF76DFE18B9D8F80840C5F800A0DB
:1020B000DDE901105A4600F039F9C9F80800204658
:1020C000E6E70000D05401080384048430BCBDE876
:1020D000C08F000010B5FFF755FF20B1BDE81040DC
:1020E0000C3000F09EB90148806910BDD054010841
:1020F0002DE9F04F91B00C46FFF744FF050013D0D7
:10210000B4B13DA12068FFF78BFB06004FF0000B38
:1021100011D020680190D4E90301CDE90401D4E98C
:102120000101CDE9020143E0002011B000F06CB8DC
:10213000112210215CE001212046D4F804A0FFF711
:10214000EBFD804604F11C00D4F820900121109092
:10215000FFF7E2FD07461422294907A8EEF78AFA9D
:102160000120B8F1000F02D0ADF8220002E0ADF876
:1021700022B0002409941FB1ADF82A00109802E0A3
:10218000ADF82AB000200B90B9F1000F02D10FB1C9
:10219000132206E0BAF1000F05D1B8F1000F02D00A
:1021A0001222102123E0142207A901A8EEF762FAF7
:1021B00014492868884212D186F00102144602A907
:1021C00005F12000FFF7BCFA68B1224604A905F129
:1021D0002800FFF7B5FA40B12846FFF70FFE0320AD
:1021E00028612846A1E7122200E013221621284682
:1021F00000F060F898E70000696E69740000000064
:10220000245501080001C0A130BCBDE8C08F00000A
:1022100070B5FFF7B7FE002807D0017C890705D409
:102220001022112100F046F8002070BD0B4A016811
:10223000914211D10546FFF7F0FD286C60B1AC6BFF
:1022400054B1D5E910322146002098472069A042B8
:1022500002D008B10446F4E7012070BD0001C0A11E
:1022600070B513460D46FFF78DFE04461A46294603
:10227000FFF7E0FA00281CD0208E08B1656B00E063
:102280000025012802D9666B0C360DE000260BE014
:102290002846FFF7F9FB2046FFF788FD3046FFF799
:1022A00027FC608B401C6083608B218B8842EFD3BE
:1022B00080B270BD002802D00C3000F0C9B8704761
:1022C000F8B50E46FFF75EFE040007D00027009722
:1022D000208E012808D9606B0C3006E010221146D0
:1022E000FFF7E8FF0020F8BD00206946FFF79EF9E0
:1022F000050005D1182211212046FFF7DBFF0097CA
:1023000006B135800098F8BD4168D1E90201484323
:10231000704702460068010A012004E05368491E24
:1023200053F8213058430029F8D17047000640EA9D
:10233000014040EA0220704710EE102A10B500213B
:102340004FF07E530180F0EE000A9A4222DAB5EE99
:10235000C00AF1EE10FA1DDD4FF07C5310EE102A8A
:102360009A421FDA028820EE200A521C12B2028022
:102370001F2AF3DD01809FED130A13E0018820EE90
:10238000010A491E09B20180914207DA028020EE5B
:10239000200A07E0B6EE001A6FF01D0210EE101AC8
:1023A0009942EBDCDFED080A20EE200A10EE100A5D
:1023B00003F04AF8CA17B1EBE07F02D06FF000409B
:1023C000504010BD000000000000004FF0B5002498
:1023D0001FE000BF00EB840595ED001A61EE001AC6
:1023E00081EEA01A11EE105AC5F3C756C6F17E074A
:1023F000C5F3160606F50006002D00DA76421F2FFB
:1024000001DD00263746F50123F8147042F8245008
:10241000641C8C42DEDBF0BD10B51EC980E81E00D6
:1024200010BD00220168027002600846704701205A
:10243000704710B18269002A00D10846704710B178
:10244000806900B1014609B1886870470020704773
:10245000037813F0FF0F01D000207047017001686E
:1024600062F31F2101600120704710B50A68026005
:102470004A6842608A6982618A68130A826863F3E3
:102480001F228260002206E0CB68C46853F8223025
:1024900044F82230521C8368B2EB132FF4D30A693C
:1024A000130A026963F31F220261002206E04B69EE
:1024B000446953F8223044F82230521C0369B2EBCD
:1024C000132FF4D310BD00002DE9F04F04462DED7D
:1024D000028BC9B08069018809B1426800E000221E
:1024E00052682AB109B1426800E0002252681268BD
:1024F0000129934602D942680C3200E0002252685A
:102500003AB1012902D942680C3200E00022526837
:1025100012683992022902D94268183200E000227A
:1025200052683AB1022902D94268183200E000220A
:1025300052681268069202290BD9426812F1180FEC
:1025400007D032F8183F012B03D9526812B15268F4
:1025500000E000220592032902D94268243200E0FB
:10256000002252683AB1032902D94268243200E0BD
:102570000022526812683A92032902D94268243232
:1025800000E00022526842B1032902D94268243295
:1025900000E000225268556800E00025626A92B1AE
:1025A0001892032902D94268243200E000225268BE
:1025B0003AB1032902D94268243200E0002252686D
:1025C0009268179202E0F94ACDE91752DBF80C2025
:1025D000022993889BB21193EB689B889BB20E9360
:1025E000399BDB68DE682C969B684093D368009328
:1025F00092681092228D92B20D92A28D92B20B929D
:10260000E26B13881FFA83F893881FFA83FA138901
:102610009BB20A93928997B2069AD268D2E901696D
:10262000626C3F92E26C3E92226D1292A36D1A6828
:1026300009925A683D9202D94268183200E000229D
:10264000526862B1022902D94068183000E00020C7
:102650004068806818B10021FFF7EBFE03E000201E
:10266000216AFFF7ECFE149010981C22811B514444
:102670000D983944B1FBF0F0A06C0F9000990A98C6
:10268000A1EB0901414401440B98B1FBF0F000F1CA
:10269000010AE06D42901798AF69C549866939987B
:1026A00080693B9023A8EDF7E5FFC1490DF1C40C0B
:1026B00020390FC98CE80F00BD4931A81039269088
:1026C0000FC90DF1D40C8CE80F0035A8289023A871
:1026D0001799FFF7CAFE314643A8FFF79DFE43A8AE
:1026E0002990E868002180681A903A98806980688B
:1026F0002D900098CDF87C90404420900998CDF81A
:10270000F08000B21990CDE92111069A8146DBF8DC
:1027100000102868126851B14B6843B1B1F802C08B
:10272000BCF1000F03D01B68D3ED008A01E0F7EE87
:10273000008A50B1436843B1B0F802C0BCF1000F49
:1027400003D01B6893ED008A01E0B7EE008ADDF844
:1027500018C0DBF8183094F84180DCF818C0CDF8C8
:10276000BC80D3F80880DCF808304793059B9B6950
:102770009B681E931AB152680AB1126800E00022E9
:102780002E9239B14A682AB1498819B1516891F934
:10279000001000E000211D9138B1416829B1408846
:1027A00018B1486890F9000000E000208346EAE094
:1027B000BAF1000F5FDD3A98806903C8FFF7D6F9D8
:1027C00001212D9ACDE90A101A980C92DDE92E23E9
:1027D000099180B2B968CDE90710CDE90523DDE99B
:1027E0001D120E9B01934798CDE9022100901F987E
:1027F000CDF810B082B21098F0EE480A81B2B0EE77
:10280000680A4046119B00F052FC2098012801D034
:10281000401E00E000201F992090814200D208460F
:102820001F903C9860B1401E00280EDADDE91010C0
:1028300000FB01F03C99C1F1010200FB028809E0B4
:10284000DDE9101202FB018808E003DD3C98A0F1ED
:10285000010001E04FF0000080B23C900E9A1A98FF
:10286000294602FB00F2DDE9170C149BE04709F151
:1028700001000FFA80F9AAF101005FEA000A26D5EB
:102880001A9A0E98B168504300FB1910F268824200
:1028900001D97368184482420DD20F9B1BB299452F
:1028A00004D108E010F8012B01F8012B7368F268DD
:1028B0001A448242F6D80F992298A1EB09010844E4
:1028C00000B21299229009EB01000FFA80F90F99DA
:1028D00009B289453CDB12980DF1140CA9EB0000FC
:1028E0000FFA80F921980122401C21904098399BD1
:1028F00081B2129880B28CE80F003E980F9B81B293
:102900001998049182B23D98229980B2CDE90202D1
:102910003F989BB280B200900F980193401A82B208
:102920001A98DDF808C181B223A80E9BE0473B98B6
:10293000816839984069C06808443B99886012985A
:10294000199900B2081A002800DC002000B2199082
:102950006869B968C0680844B860606A28B11798A7
:10296000B1684069C0680844B060284601F0B8FC0E
:102970000146F868BA680144914204D8B860606AB8
:1029800008B1F068B06021992C988142FFF410AF33
:10299000F868B860F068B0603B983B99C0688860A0
:1029A00049B0BDEC028B00F005B80000DF42010821
:1029B000D055010830BCBDE8C08F00002DE9F04FB4
:1029C00004462DED028BD5B08069018809B14268BB
:1029D00000E0002252682AB109B1426800E00022FA
:1029E000526812680692012902D942680C3200E04E
:1029F000002252683AB1012902D942680C3200E043
:102A00000022526812684792022902D9426818329D
:102A100000E0002252683AB1022902D94268183215
:102A200000E0002252681268059202290BD9426820
:102A300012F1180F07D032F8183F012B03D9526852
:102A400012B1526800E000220492032902D94268C0
:102A5000243200E0002252683AB1032902D94268C8
:102A6000243200E00022526812684892032902D9F9
:102A70004268243200E00022526842B1032902D9A0
:102A80004268243200E000225268556800E00025C8
:102A9000626A92B12092032902D94268243200E08E
:102AA000002252683AB1032902D94268243200E078
:102AB0000022526892681F9202E0FE4ACDE91F523E
:102AC000069A0229D26893889BB21A93EB689B8876
:102AD0009BB21793479BDB68DE6838969B684C93E4
:102AE000D2F80C9092682292228D92B22892A28DF6
:102AF00092B21492E26B13881FFA83F893889BB208
:102B00002793138992899FB296B2059AD2689368E7
:102B1000199352682492626C4B92E26C4A92226D35
:102B20002192A26D136826935268499202D9426895
:102B3000183200E00022526862B1022902D94068CE
:102B4000183000E000204068806818B10021FFF7CD
:102B500070FC03E00020216AFFF771FC1C902499AF
:102B600022981C22411A2798084481192898B1FB01
:102B7000F0F01999A06C1690A9EB0101414414984A
:102B80003944B1FBF0F000F1010AE06D53901F9859
:102B9000AF69C9498669479880694D9030A8EDF7BB
:102BA00069FDC5480DF1F80B2038B0E80E108BE830
:102BB0000E103EA933910FC80DF5847B8BE80F00F2
:102BC00042A8359030A81F99FFF74FFC31464FA817
:102BD000FFF722FC4FA83690E8680021059A80682C
:102BE000259048988B46806980683990199829907B
:102BF00009EB080018902698CDF8548000B2CDE972
:102C00002E108146069812680168286851B14B68F9
:102C100043B1B1F802C0BCF1000F03D01B6893EDC3
:102C2000008A01E0B7EE008A50B1436843B1B0F8C2
:102C300002C0BCF1000F03D01B68D3ED008A01E095
:102C4000F7EE008A069B94F84180D3F818C0059BE4
:102C50009B69CDF8F080DCF808809B683B93049B6F
:102C60009B699B682D931AB152680AB1126800E003
:102C700000223A9239B14A682AB1498819B151689B
:102C800091F9001000E000212C9138B1416829B180
:102C9000408818B1486890F9000000E000202B90AF
:102CA00005E100BFBAF1000F72DD00202699009007
:102CB000894504D1BBF1000F01D101200090489853
:102CC000806903C8FEF752FF3999009A0123CDE9C4
:102CD0001101CDE90F322598BA6881B23A9B3C9830
:102CE000CDE90C020B930DF1AC0C0E919CE80700A2
:102CF000159BCDE90910CDE90732DDE92702199BC3
:102D00001499CDE905109BB2CDE9033224983B9A82
:102D100080B217990092CDE901102998F0EE680A67
:102D200082B22298B0EE480A81B240461A9B00F067
:102D300039FA14991898884201D0401A00E000200E
:102D400029991890814200D2084629901598B0B36D
:102D50001499401A002809D5229A1A9901FB02F108
:102D6000DDE91423A2EB030301FB038801DC4FF030
:102D7000000080B21590179A2598294602FB00F2B0
:102D8000DDE91F0C1C9BE04709F101000FFA80F9F7
:102D9000AAF101005FEA000A2ED5259A1798B168BA
:102DA000504300FB1910F268824201D9736818443D
:102DB000824216D2169A12B291450DD111E0FFE768
:102DC00022991A98149A484300FB0288D3E700BF5F
:102DD00010F8012B01F8012B7368F2681A44824243
:102DE000F6D816992E98A1EB0901084400B22E904E
:102DF000219848440FFA80F9169909B289453BDBBE
:102E00002198219AA9EB00000FFA80F94C9892B210
:102E100080B24799CDE905200123CDE907312F99EB
:102E20004A988AB2499980B28BB21699CDE90320AB
:102E300089B2CDE901134B982E9980B20090169873
:102E4000DDF84CC1401A82B225980BF1010B81B21A
:102E500030A8179BE0474D98816847984069C06843
:102E600001444D98816021992F9809B2401A002899
:102E700000DC002000B22F906969B868C968084476
:102E8000B860606A28B11F98B1684069C06808449A
:102E9000B060284601F024FA0146F868BA68014497
:102EA000914204D8B860606A08B1F068B06038999F
:102EB0008B4503E0DF4201080C560108FFF4F2AE37
:102EC000F868B860F068B0604D984D99C068886047
:102ED00055B0BDEC028B00F000B830BCBDE8C08F2F
:102EE0002DE9F04F816987B0088808B14A6800E091
:102EF0000022526832B108B14A6800E000225268EC
:102F0000156800E00025012802D94A680C3200E06B
:102F10000022526842B1012802D94A680C3200E00E
:102F200000225268146800E00024022802D94A688E
:102F3000183200E00022526842B1022802D94A68E1
:102F4000183200E000225268166800E000260228CD
:102F50000BD94A6812F1180F07D032F8183F012B2D
:102F600003D9526812B1526800E00022904603284B
:102F700002D94A68243200E00022526842B1032894
:102F800002D94868243000E000204068076800E06B
:102F90000027E86880881FFA80FBE06880881FFAB5
:102FA00080FA04F10800FFF7AFF98446D8F818005A
:102FB000D0F808907FB1B869D0F808802B682068F5
:102FC0003768B26953B1596841B15E8836B1096852
:102FD00091ED000A04E04FF00008EFE7B7EE000AB9
:102FE00038B1416829B146881EB10968D1ED000A9F
:102FF00001E0F7EE000AA16992688C68A969896806
:103000003BB15D682DB15B881BB16B6893F90030F3
:1030100000E0002338B145682DB1408818B16868D8
:1030200090F9005000E000251FB1786808B10068F1
:1030300000E00020CDF80CA08DE82808CDE904C8F8
:1030400090ED001A4B46204600F00EFC07B000F051
:1030500000B830BCBDE8C08F2DE9FF4F9A462DED7A
:10306000020B8BB09346DDE92367DDE92145DDE9FD
:103070001F238E46DDE91D01DDE91A98DDF870C0D9
:10308000CDE90301CDE9052348468DE80111CDE9DD
:103090000745CDE9096753465A4671460D9801F038
:1030A0003FFA11B000F000B830BCBDE8C08F2DE988
:1030B000F04F99B09946DDE92A3505FB03F6239CCC
:1030C000299B8B468246DDE92D1706FB043627989F
:1030D000564509D902FB0BF202FB09A3299A934238
:1030E00002D94FF0010801E0A84601253944A1EBBF
:1030F000440633463A4621461097FFF767F907EB37
:10310000C4001590002107EB840001230FE0B6F9FD
:103110000020571E152F06D2269F974003FA02F271
:1031200007EB520200E0269A491C04C0B61CA142DB
:10313000EDDBA6EB4401A0EB84001190CDE90C1966
:103140000BFB09F188B2CDE90E40D1460027299E3C
:103150001FE0289B15981199CDE90A10CDE9083B8D
:103160000F992A9B2598CDE90438CDE90610DDE9B1
:103170000D3210980C998DE80F0033464846249A7A
:103180002299FCF73DFF2A980F9900FB04668944B9
:103190007F1CAF42DDD319B000F000B830BCBDE8F1
:1031A000C08F00002DE9FF4F8A462DED020BC3B002
:1031B0000020DDE963180490DDF880916198539E4A
:1031C0005F9A00FB09F000FB062245985D9F5A9D1F
:1031D0001C4682420AD94798459A00FB0AF000FB38
:1031E00004225F98824201D9012004905E9803284E
:1031F00001D0022801D10020049008EB0100A0EBCF
:10320000460083460346424631463846CDF8348070
:10321000FFF7DCF85E98C10709F1020061993B9065
:1032200002D0891C484301E009FB01F016905B992C
:103230005598CDE90005CDE9021832462046549B49
:10324000529901F0CDFD06EB4601549808EB81053B
:103250000F9504FB00F755980021784380B2099040
:1032600008EB86003D9008EBC60001233C9014E07B
:10327000BBF90020A2F1010CBCF1150F08D2DDF85A
:1032800070C10CFA02FC03FA02F20CEB520200E0ED
:103290005C9A0BF1020B04C0491CB142E8DBABEBBA
:1032A00046000A903F900D983E904798CDF8D090F8
:1032B0002F9061983390549838905598379056983D
:1032C0002590CDF8C0A057982690589827905998E7
:1032D000289036A8009032AB2EAA23A918A8FEF792
:1032E000B7FD5E98C0F3400015905E98032821D08A
:1032F0000020429000203A9052980C90549960001F
:103300004843559948430F9901EB40001090DDE97F
:1033100054014843604370434FF4A051B1EB400F58
:1033200000DB410001EBD1704FEA60086298012890
:1033300002D00FE00120DCE709987043404509DC2A
:10334000A007099A10990C98334623D001F03AFA55
:1033500001203A90099998FBF1F080B2864200D2A0
:1033600030464090B6FBF0F041904098B6FBF0F14B
:1033700000FB116018B14198401C80B24190559AF1
:1033800060005043549A04995043149000297AD015
:10339000002028E101F048FBDAE718A8FEF7AFFDAE
:1033A0005E98032818D022985F99704300FB09109B
:1033B000179006903D9811903F980A903E980D9076
:1033C0003C980E9040980B904198429052980C90E7
:1033D0003A98139640B1FEE022985F99401C3B9AC0
:1033E000491C00FB0210E3E7099AA0077AD0EDE040
:1033F0001B9818901C9819901D981A900020A3E013
:1034000018A8FEF796FDBDF88600012813D056993E
:103410002D9848435899A0EB010BA0075799229883
:1034200000FB01F05999A0EB0108559908EB010048
:1034300045D0049064E05799229848435999A0EBED
:10344000010B55990BEB0100049032E056992D9831
:1034500048435899A0EB0108549908EB01000390E8
:1034600022E000BFBBF1000F07DB47998B4504DA70
:10347000B8F1000F01DBD04506DB224629465B98F8
:1034800001F032F80BE0BCE0A0070BFB0A81459885
:10349000224601FB040029460ED001F0BDFB039833
:1034A00005EB440508F101084045DBDC04980BF10D
:1034B000010B5845CADC26E001F032FCEFE703902F
:1034C0000DE008FB0AB145983A4601FB0400294685
:1034D00001F026FC039805EB470508F1010840457B
:1034E000EFDC10E087E008FB0AB145983A4601FBA3
:1034F0000400294601F090FB05EB470508F101089F
:1035000004994145EFDC0F99149801EB4000A84263
:1035100018D1DDE90D0105AD069B159A85E80F0070
:1035200009AD002395E80700CDE90301CDE901329B
:1035300016980090DDE90F103346119AFDF7FBFA5B
:103540000F9D06902D98401C2D904845FFF658AFD2
:103550000F98854213D0DDE90D0104AD069B159A45
:1035600085E80F00DDE9092316980B998DE80F0017
:10357000DDE90F103346119A01F088FC0F9D0B997D
:1035800017980844179006901398401A80B2139029
:1035900008461399884200D201460B91D9B1099A85
:1035A0000C9902FB00110C91119901EB8001119112
:1035B0000A9901EB40010A910D9901EB80010D91EF
:1035C0000E9901EB80000E90A00714D0DDE90B30BE
:1035D000109901F0F7F84299481E80B24290BFF46A
:1035E00007AF2298401C619922908842FFF6D5AE21
:1035F00049B000F036B9DDE90B30109901F014FA4A
:10360000E9E741983B903D9811903C980E90409886
:103610000B9017965F9819E13A9838B9A007DDE941
:103620000B30099A109907D001F0CCF81398069046
:103630005E98032803D006E001F0F6F9F6E7069855
:103640004844C01C06900020BCE018A8FEF757FCB8
:103650000020B1E018A8FEF76CFCBDF88600012838
:1036600013D02D99569841435898A1EB000BA00711
:103670005799229800FB01F05999A0EB0108559940
:1036800008EB010044D0039063E02299579841432E
:103690005998A1EB000B55990BEB0100059030E018
:1036A00056992D9848435899A0EB0108549908EB76
:1036B0000100039020E000BFBBF1000F07DB47993A
:1036C0008B4504DAB8F1000F01DBD04505DB22465B
:1036D00029465B9800F008FF0AE0A0070BFB0A816F
:1036E0004598224601FB040029460ED001F094FAC9
:1036F00005EB440508F1010803994145DCDC0BF1B9
:10370000010B05995945CBDC25E001F009FBEFE7FA
:1037100004900CE008FB0AB145983A4601FB04000E
:10372000294601F0FDFA05EB470508F10108049967
:103730004145EFDC0FE008FB0AB145983A4601FB32
:103740000400294601F068FA039805EB470508F1E3
:1037500001084045EFDC0F99149801EB4000A842A6
:1037600028D14299002011B12D9901B90220DDE93B
